:100000000A128A11FA2F00308A000408840A820733
:1000100000342034203420342034573465346C3498
:1000200063346F346D34653420342034203420340C
:1000300020340034203420342034203441346334DC
:1000400074346934763461347434653464342034FF
:1000500020342034003420342034543461346E345D
:100060006B342034693473342034463475346C3442
:100070006C34203420340034203420344D34613446
:100080006E34753461346C3420344D346F346434E0
:1000900065342E342E3420340034573461347434B3
:1000A0006534723420344D34473454342E34203483
:1000B0005334593453342E342E34003450346C3489
:1000C00073342034533465346C346534633474349D
:1000D00020344D344F34443445342E3400345034BD
:1000E0007534733468342034533474346134723466
:1000F000743442347534743474346F346E34003470
:100100005734613474346534723420344D3461347E
:100110006E346134673465346D3465346E347434F0
:100120000034203420342034203453347934733470
:10013000743465346D342034203420342034203439
:10014000003420344134753474346F346D34613488
:1001500074346934633420344D346F34643465341A
:1001600000345334743461347234743469346E340A
:0801700067342E342E340034F4
:1008EC0000300A128A1183240A128A1101300A126A
:1008FC008A1183240A128A110800F300831203134D
:10090C00081173080A128A119D240A128A11831283
:10091C00031388151A30F200F830F100F10B942C07
:10092C00F20B942C00008312031388110800F000C2
:10093C00701CA12CA22CA62C831203130816A92C14
:10094C00831203130812F01CAC2CAD2CAF2C8816A0
:10095C00B02C8812701DB32CB42CB62C0817B72CE5
:10096C000813F01DBA2CBB2CBD2C8817BE2C881379
:10097C000800FB00F901FA01D62C79087B078400EA
:10098C000A128A1103200A128A110A128A117F256F
:10099C000A128A110130F9070318FA0A0030FA0713
:1009AC0079087B0784000A128A1103200A128A1123
:1009BC00003A031DE22CE32CC32C0800F60076034E
:1009CC00031DE92CEA2C072D74087F3EF9007908E9
:1009DC00F50004300310F50CFF3E031DF02C7508D8
:1009EC00F70079080F39F80077080A128A11832466
:1009FC000A128A1178080A128A1183240A128A119F
:100A0C00292D02307606031D0C2D0D2D292D740871
:100A1C00BF3EF9007908F50004300310F50CFF3ED9
:100A2C00031D132D7508F70079080F39F8007708A6
:100A3C000A128A1183240A128A1178080A128A115E
:100A4C0083240A128A11080000300A128A119D248C
:100A5C000A128A1103300A128A1183240A128A118B
:100A6C002130F5007630F400F40B3A2DF50B3A2DCD
:100A7C00000003300A128A1183240A128A114830AA
:100A8C00F5006C30F400F40B492DF50B492D0000EA
:100A9C0003300A128A1183240A128A1102300A12B4
:100AAC008A1183240A128A1102300A128A118324B1
:100ABC000A128A1108300A128A1183240A128A1126
:100ACC0000300A128A1183240A128A110C300A127D
:100ADC008A1183240A128A1100300A128A11832483
:100AEC000A128A1106300A128A1183240A128A11F8
:100AFC000800F80078080F39F2007808F039F30094
:100B0C008312031308157308F10004300310F10C61
:100B1C00FF3E031D8C2D71080A128A119D240A12A6
:100B2C008A118312031388153330F4008230F500D8
:100B3C000000FF30F4070318F50AFF30F5077508BD
:100B4C00803AFF0080307F02031DAE2D013074020D
:100B5C00031CB12DB22D9E2D831203138811720824
:100B6C000A128A119D240A128A1183120313881502
:100B7C003330F6008230F7000000FF30F607031820
:100B8C00F70AFF30F7077708803AFF0080307F02C2
:100B9C00031DD22D01307602031CD52DD62DC22D6E
:100BAC008312031388110800831603138801013084
:100BBC008600831203138615831603138701831291
:100BCC0003130710871087110711071286140A12D6
:100BDC008A112A250A128A110A128A1176240A12FB
:100BEC008A11F401F40A01300A128A11E4240A125F
:100BFC008A1101300A128A11BF240A128A11F401D7
:100C0C00F40A02300A128A11E4240A128A1178308A
:100C1C000A128A11BF240A128A1133308312031369
:100C2C00A200BB30A100DF30A000A00B1B2EA10B3B
:100C3C001B2EA20B1B2E0A128A1176240A128A1161
:100C4C00F401F40A01300A128A11E4240A128A11FE
:100C5C0089300A128A11BF240A128A11F401F40A8B
:100C6C0002300A128A11E4240A128A11A9300A12DB
:100C7C008A11BF240A128A111A3083120313A2009C
:100C8C005E30A1006D30A000A00B4A2EA10B4A2EA5
:100C9C00A20B4A2E512E0B30F40002300A128A118C
:100CAC00E4240A128A1154300A128A11BF240A123F
:100CBC008A111A3083120313A2005E30A1006D302A
:100CCC00A000A00B672EA10B672EA20B672E6E2E19
:100CDC000C30F40002300A128A11E4240A128A1130
:100CEC0054300A128A11BF240A128A111A30831244
:100CFC000313A2005E30A1006D30A000A00B842E67
:100D0C00A10B842EA20B842E8B2E0D30F4000230FE
:100D1C000A128A11E4240A128A1154300A128A1116
:100D2C00BF240A128A11D22EF401F40A01300A12DD
:100D3C008A11E4240A128A1145300A128A11BF243E
:100D4C000A128A11F401F40A02300A128A11E424FC
:100D5C000A128A1156300A128A11BF240A128A11F9
:100D6C00831203138618BB2EBC2ED22E0330831293
:100D7C000313A2008A30A1005530A000A00BC42E92
:100D8C00A10BC42EA20BC42E7C08013EFC007D08D6
:100D9C000318013E003EFD007C087D040319D72E8C
:100DAC00D82E9A2E831203138618DD2EDE2EF42EE7
:100DBC00033083120313A2008A30A1005530A00027
:100DCC00A00BE62EA10BE62EA20BE62E7C08013E14
:100DDC00FC007D080318013E003EFD007D08803AB2
:100DEC00FF0080307F02031DFD2E03307C02031CAC
:100DFC00002F012F052F0130FC000030FD000230C8
:100E0C007C067D04031D0B2F0C2F7D2F83120313E7
:100E1C0087100714F401F40A01300A128A11E42431
:100E2C000A128A1199300A128A11BF240A128A11E5
:100E3C00F401F40A02300A128A11E4240A128A110B
:100E4C0012300A128A11BF240A128A118312031358
:100E5C00861E312F322F392F061A352F362F392F68
:100E6C00071607157D2F861E3C2F3D2F452F061A82
:100E7C00402F412F452F0619442F452F7D2F071248
:100E8C000711772F86194B2F4C2F772FF401F40A6B
:100E9C0002300A128A11E4240A128A1123300A122F
:100EAC008A11BF240A128A111A3083120313A2006A
:100EBC005E30A1006D30A000A00B622FA10B622F41
:100ECC00A20B622F692FF401F40A02300A128A1164
:100EDC00E4240A128A1167300A128A11BF240A12FA
:100EEC008A1183120313061A7C2F7D2F482F7C0343
:100EFC007D04031D822F832FD22EF401F40A0130BE
:100F0C000A128A11E4240A128A1134300A128A1144
:100F1C00BF240A128A11F401F40A02300A128A114F
:100F2C00E4240A128A1167300A128A11BF240A12A9
:100F3C008A1183120313871407108619A62FA72F63
:100F4C00B22F861EAA2FAB2FB22F061AAE2FAF2FA1
:100F5C00B22F07160715D22E861EB52FB62FBE2F11
:100F6C00061AB92FBA2FBE2F0619BD2FBE2FD22E9F
:100F7C0007120711F02F8619C42FC52FF02FF4017B
:100F8C00F40A02300A128A11E4240A128A1123305C
:100F9C000A128A11BF240A128A111A3083120313FF
:100FAC00A2005E30A1006D30A000A00BDB2FA10BC6
:100FBC00DB2FA20BDB2FE22FF401F40A02300A1212
:100FCC008A11E4240A128A1167300A128A11BF248A
:100FDC000A128A1183120313061AF52FF62FC12F4A
:100FEC00D22E0A128A110028FC01FD0183010A127B
:040FFC008A11DA2D4F
:02400E007A3FF7
:00000001FF
